:100000000C9440000C94D2010C94DA050C94DA059F
:100010000C94DA050C94DA050C94DA050C94DA05E4
:100020000C94DA050C94DA050C941A050C94DA0594
:100030000C94DA050C94DA050C94DA050C94DA05C4
:100040000C94DA050C94DA050C94DA050C94DA05B4
:100050000C94DA050C94DA050C94DA050C94DA05A4
:100060000C94DA050C94DA050100011580011501E4
:1000700019000BB8011901238001230125000BBCD5
:1000800011241FBECFEFD8E0DEBFCDBFE8E6F0E021
:1000900040E017C0B591A59135912591059107FDD7
:1000A0000CC095918591EF01F92FE82F05900D92E5
:1000B000A217B307D9F7FE0104C01D92A217B30718
:1000C000E1F7E038F40731F70E946A000C94680009
:0400D000F894FFCFD2
:1000D400F8940E946C050E945F050E9478051092B6
:1000E400850010928400E1E8F0E0808180648083E0
:1000F400AFE6B0E08C9181628C93808181608083D3
:10010400549A78940F2EF1E8CF2ED12CF02DEE24B2
:10011400E3940F2EF0E48F2EF2E49F2EFFE0AF2E37
:10012400B12CF02DFE2C0F2EF1E02F2EF1E03F2EFE
:10013400F02D09E011E010921101109212011092B9
:1001440013011092140110921A01109219011092C5
:100154001E0110921D0110921C0110921B01F60148
:10016400F08280911B0190911C0120911D0130911E
:100174001E01821B930B90931A01809319016091C5
:10018400190170911A01072E000C880B990BA50117
:1001940094010E943705CA01B9010E9426046093A4
:1001A400110170931201809313019093140183E75A
:1001B4000E94840580E090E00E94B404BC01990F81
:1001C400880B990B0E94260420E030E040EC51E4B7
:1001D4000E94D30520E030E040E85AE30E94D305B2
:1001E40060930501709306018093070190930801C1
:1001F4000E948C05833509F471C0863521F08F3453
:1002040009F099CF65C040900501509006016090B7
:1002140007017090080120E030E048EC52E4C3018B
:10022400B2010E94CF050E94A3057093220160933E
:10023400210120E3260FF8012383F4E6F69F9001C1
:10024400F79F300D1124B901330F880B990B0E94CD
:1002540026049B01AC01C301B2010E949C052B0141
:100264003C0120E030E040E251E40E94CF050E94CE
:10027400A30580E3860FF8018283862F972F880FCA
:10028400991FBC01660F771F660F771F680F791FD0
:10029400072E000C880B990B0E9426049B01AC01CD
:1002A400C301B2010E949C050E94A30560931F0133
:1002B40070932001605DF801618346E54083CDE0E1
:1002C400D1E08A910E9484050C171D07D1F733CF22
:1002D400809124018E25809324012DCF1092150145
:1002E4001092160110921701109218010E948C05A9
:1002F400F1018083682F70E0409015015090160141
:10030400609017017090180167527109072E000C54
:10031400880B990B0E942604A30192010E949D055B
:10032400A30192010E949D0560931501709316012B
:1003340080931701909318010E948C05809300010B
:1003440040901501509016016090170170901801AB
:10035400682F70E060537109072E000C880B990B0D
:100364000E942604A30192010E949D05A30192010B
:100374000E949D05609315017093160180931701E7
:100384009093180120E030E040E452E40E949D057F
:100394000E946104862F609310010E948405CBCED5
:1003A4001F920F920FB60F9211248F929F92AF92C9
:1003B400BF92CF92DF92EF92FF922F933F934F938E
:1003C4005F936F937F938F939F93AF93BF93EF93B9
:1003D400FF9380912301882309F46FC080E090E0AB
:1003E4000E94B404BC01990F880B990B0E94260447
:1003F40020E030E040E251E40E94D30520E030E008
:1004040040E85AE30E94D3056093150170931601E6
:1004140080931701909318012AE939E949E95EE3C9
:100424000E94C505882314F45C98B3C05C9A80903C
:10043400150190901601A0901701B090180120E0CA
:1004440030E04AE755E4C501B4010E94D3056B01CD
:100454007C0120E030E040E85FE30E94C50588238A
:100464002CF120E03FEF4FE757E4C701B6010E94AB
:10047400CA051816B4F420E030E040E251E4C501A6
:10048400B4010E94D3050E9461046115710599F0BD
:1004940020E931E0C9010197F1F761507109D1F701
:1004A4000AC0C701B6010E94610402C061E070E0A5
:1004B400CB010197F1F75C986CC0809124018823EB
:1004C40009F467C0C0901501D0901601E09017019F
:1004D400F090180120E030E040E05FE3C701B6018E
:1004E4000E94C505882314F45C9853C020E030E0D2
:1004F40040E251E4C701B6010E94C50518160CF488
:1005040047C05C9A8090150190901601A090170145
:10051400B090180120E030E04AE755E4C501B40189
:100524000E94D3056B017C0120E030E040E85FE3EA
:100534000E94C50588232CF120E03FEF4FE757E4E4
:10054400C701B6010E94CA051816B4F420E030E0D1
:1005540040E251E4C501B4010E94D3050E94610444
:100564006115710599F020E931E0C9010197F1F7AE
:1005740061507109D1F70AC0C701B6010E94610434
:1005840002C061E070E0CB010197F1F75C9801C013
:100594005C98FF91EF91BF91AF919F918F917F9163
:1005A4006F915F914F913F912F91FF90EF90DF906A
:1005B400CF90BF90AF909F908F900F900FBE0F90F1
:0405C4001F901895D7
:1005C80010C00E94B10558F00E94AA0540F029F415
:1005D8005F3F29F00C94BF0551110C94B9050C9498
:1005E800D7050E94D60468F39923B1F3552391F3F4
:1005F800951B550BBB27AA2762177307840738F08A
:100608009F5F5F4F220F331F441FAA1FA9F335D0E6
:100618000E2E3AF0E0E832D091505040E695001C9A
:10062800CAF72BD0FE2F29D0660F771F881FBB1F54
:10063800261737074807AB07B0E809F0BB0B802D32
:10064800BF01FF2793585F4F3AF09E3F510578F05E
:100658000C94BF050C94B9055F3FE4F3983ED4F3BE
:10066800869577956795B795F7959F5FC9F7880F32
:10067800911D9695879597F90895E1E0660F771F84
:10068800881FBB1F621773078407BA0720F0621B15
:0E069800730B840BBA0BEE1F88F7E0950895E4
:1006A6000FC00E94AA0538F00E94B10520F09523DC
:1006B60011F00C94BF050C94D70511240C94B905C0
:1006C6000E94D60470F3959FC1F3950F50E0551F15
:1006D600629FF001729FBB27F00DB11D639FAA2791
:1006E600F00DB11DAA1F649F6627B00DA11D661FE0
:1006F600829F2227B00DA11D621F739FB00DA11D01
:10070600621F839FA00D611D221F749F3327A00DBA
:10071600611D231F849F600D211D822F762F6A2F56
:1007260011249F5750409AF0F1F088234AF0EE0FBB
:10073600FF1FBB1F661F771F881F91505040A9F7E8
:100746009E3F510580F00C94BF050C94B9055F3FA0
:10075600E4F3983ED4F3869577956795B795F79524
:10076600E7959F5FC1F7FE2B880F911D969587959C
:0407760097F9089552
:10077A0011C00E94AA0538F00E94B10520F039F490
:10078A009F3F19F426F40C94D7050EF4E095E7FB85
:10079A000C94BF05E92F0E94D60458F3BA176207D2
:1007AA0073078407950720F079F4A6F50C94B80529
:1007BA000EF4E0950B2EBA2FA02D0B01B901900172
:1007CA000C01CA01A0011124FF27591B99F0593FB6
:1007DA0050F4503E68F11A16F040A22F232F342FFE
:1007EA004427585FF3CF469537952795A795F0404C
:1007FA005395C9F77EF41F16BA0B620B730B840B61
:10080A00BAF09150A1F0FF0FBB1F661F771F881F18
:10081A00C2F70EC0BA0F621F731F841F48F4879570
:10082A0077956795B795F7959E3F08F0B0CF939562
:0E083A00880F08F09927EE0F9795879508957F
:10084800E89409C097FB3EF4909580957095619562
:100858007F4F8F4F9F4F9923A9F0F92F96E9BB2718
:100868009395F695879577956795B795F111F8CF94
:10087800FAF4BB0F11F460FF1BC06F5F7F4F8F4FFF
:100888009F4F16C0882311F096E911C0772321F0F5
:100898009EE8872F762F05C0662371F096E8862F8D
:1008A80070E060E02AF09A95660F771F881FDAF7E4
:0A08B800880F9695879597F908952B
:1008C2000E94DE0488F09F5798F0B92F9927B751FC
:1008D200B0F0E1F0660F771F881F991F1AF0BA95E2
:1008E200C9F714C0B13091F00E94B805B1E0089583
:1008F2000C94B805672F782F8827B85F39F0B93F75
:10090200CCF3869577956795B395D9F73EF4909594
:0E0912008095709561957F4F8F4F9F4F089590
:10092000990F0008550FAA0BE0E8FEEF1616170600
:10093000E807F907C0F012161306E407F50798F068
:10094000621B730B840B950B39F40A2661F0232B81
:10095000242B252B21F408950A2609F4A140A695FD
:080960008FEF811D811D089538
:10096800ECE7F0E09081907F90839081892B8083E1
:10097800EAE7F0E080818068808385E38A95F1F773
:100988000000808180648083808184FFFDCFEAE756
:10099800F0E080818061808310828091780090915E
:0409A8007900089535
:1009AC0057FD9058440F551F59F05F3F71F0479514
:1009BC00880F97FB991F61F09F3F79F087950895F9
:1009CC00121613061406551FF2CF4695F1DF08C018
:1009DC00161617061806991FF1CF86957105610535
:0409EC0008940895CE
:1009F000A1E21A2EAA1BBB1BFD010DC0AA1FBB1F23
:100A0000EE1FFF1FA217B307E407F50720F0A21B94
:100A1000B30BE40BF50B661F771F881F991F1A9401
:100A200069F760957095809590959B01AC01BD012B
:040A3000CF01089555
:100A34001F920F920FB60F9211248F939F93809160
:100A440086009091870090931E0180931D0110925F
:100A54001C0110921B018FEB809381009F918F9159
:0A0A64000F900FBE0F901F90189521
:100A6E00052E97FB1EF400940E94940557FD07D0A7
:100A7E000E94F80407FC03D04EF40C949405509594
:0E0A8E004095309521953F4F4F4F5F4F089593
:100A9C00092E0394000C11F4882352F0BB0F40F480
:100AAC00BF2B11F460FF04C06F5F7F4F8F4F9F4FC0
:020ABC0008959B
:100ABE00ECE7F0E080818083808181608083EAE7CB
:0A0ACE00F0E08081816080830895CC
:100AD80052985A9AE9E6F0E080818E7F808380817F
:080AE80082608083E89A089502
:100AF0001092C50087E68093C40088E18093C1000E
:080B00008EE08093C20008950D
:100B0800E0ECF0E0908195FFFDCF8093C60008955A
:100B1800E0ECF0E080818823ECF78091C60008952E
:100B280090958095709561957F4F8F4F9F4F089551
:0E0B38005058BB27AA270E94BD030C944E05FF
:0E0B46000E9461046894B1110C94B9050895E1
:0E0B540000240A9416161706180609060895BE
:0E0B620000240A9412161306140605060895C0
:0E0B7000E894BB2766277727CB0197F90895F5
:0C0B7E0097F99F6780E870E060E0089540
:0A0B8A000E94900408F481E0089531
:0A0B94000E94900408F48FEF08950A
:080B9E000E94E4020C944E05D4
:080BA6000E9453030C944E055C
:060BAE009FEF80EC0895AA
:040BB4000C9400009D
:040BB8000000803F7A
:010BBC000137
:010BBD000136
:00000001FF
