:100000000C9440000C94FE010C9487060C94870617
:100010000C9487060C9487060C9487060C9487062C
:100020000C9487060C9487060C94AC050C948706F8
:100030000C9487060C9487060C9487060C9487060C
:100040000C9487060C9487060C94FE040C94870687
:100050000C9487060C9487060C9487060C948706EC
:100060000C9487060C94870601000124800124016A
:1000700028000D1201280129800129012A000D16EE
:1000800011241FBECFEFD8E0DEBFCDBFE8E6F0E021
:1000900040E017C0B591A59135912591059107FDD7
:1000A0000CC095918591EF01F92FE82F05900D92E5
:1000B000A217B307D9F7FE0104C01D92A217B30718
:1000C000E1F7E038F40731F70E946A000C94680009
:0400D000F894FFCFD2
:1000D400F8940E94FE050E94F1050E940A061092FF
:1000E400850010928400E1E8F0E0808180648083E0
:1000F400AFE6B0E08C9181628C93808181608083D3
:1001040084B18C6284B98CB582658CBD6FEF89E053
:100114000E9416066091260161508BE00E9416062B
:1001240063E08AE00E94160661E08CE00E941606F5
:1001340078940F2EF0E42F2EFCE93F2EF02D0F2E95
:10014400F1E8CF2ED12CF02DFF24F3940AE011E036
:100154000F2EF4E6EF2EF02D0F2E812C912CF0E8CB
:10016400AF2EFFE3BF2EF02D609124017091250185
:10017400072E000C880B990B0E94E002C101019725
:10018400F1F71092120110921301109214011092BF
:10019400150110921B0110921A0110921F01109266
:1001A4001E0110921D0110921C01F601F082809133
:1001B4001C0190911D0120911E0130911F01821B91
:1001C400930B90931B0180931A0160911A01709113
:1001D4001B01072E000C880B990B20E432E44FE03E
:1001E40050E00E94C905CA01B9010E9494046093B9
:1001F400120170931301809314019093150180E010
:1002040090E00E944605BC01990F880B990B0E944F
:10021400940420E030E040EC51E40E94800620E0A9
:1002240030E040E85AE30E9480062B013C016093D1
:10023400060170930701809308019093090180914E
:100244000501833509F475C0863521F08F3409F032
:100254008BCF5CC020E030E048EC52E4C301B20133
:100264000E947C060E944B06709323016093220136
:1002740020E3260FF8012383E69E9001E79E300DCC
:100284001124B901330F880B990B0E9494049B012C
:10029400AC01C301B2010E9444062B013C0120E0E1
:1002A40030E040E251E40E947C060E944B0680E369
:1002B400860FF8018283862F972F880F991FBC0120
:1002C400660F771F660F771F680F791F072E000CC4
:1002D400880B990B0E9494049B01AC01C301B201E9
:1002E4000E9444060E944B066093200170932101F2
:1002F400605DF801618386E58083CEE0D1E08A9178
:100304000E942C060C171D07D1F72ECF80912701D0
:100314008F2580932701809128018F2580932801C0
:100324008092160190921701A0921801B0921901BF
:100334001BCF1092160110921701109218011092FF
:1003440019010E943406E1E0F1E08083682F70E037
:100354004090160150901701609018017090190197
:1003640067527109072E000C880B990B0E949404A4
:10037400A30192010E944506A30192010E94450631
:1003840060931601709317018093180190931901DB
:100394000E9434068093000140901601509017018A
:1003A4006090180170901901682F70E06053710912
:1003B400072E000C880B990B0E949404A301920150
:1003C4000E944506A30192010E944506609316010E
:1003D40070931701809318019093190120E030E085
:1003E40040E452E40E9445060E94CF04862F6093A5
:0803F40011010E942C06B8CE95
:1003FC001F920F920FB60F9211248F929F92AF9271
:10040C00BF92CF92DF92EF92FF922F933F934F9335
:10041C005F936F937F938F939F93AF93BF93EF9360
:10042C00FF9380912701882309F465C080E090E058
:10043C000E944605BC01990F880B990B0E949404ED
:10044C0020E030E040E251E40E94800620E030E001
:10045C0040E85AE30E9480066093160170931701DE
:10046C0080931801909319015C9A809016019090DA
:10047C001701A0901801B090190120E030E04AE774
:10048C0055E4C501B4010E9480066B017C0120E09B
:10049C0030E040E85FE30E94720688232CF120E0F4
:1004AC003FEF4FE757E4C701B6010E9477061816D5
:1004BC00B4F420E030E040E251E4C501B4010E9404
:1004CC0080060E94CF046115710599F020E931E096
:1004DC00C9010197F1F761507109D1F70AC0C70141
:1004EC00B6010E94CF0402C061E070E0CB0101971D
:1004FC00F1F75C9846C05C9A8090160190901701B9
:10050C00A0901801B090190120E030E04AE755E4C2
:10051C00C501B4010E9480066B017C0120E030E033
:10052C0040E85FE30E94720688232CF120E03FEF45
:10053C004FE757E4C701B6010E9477061816B4F4CA
:10054C0020E030E040E251E4C501B4010E94800695
:10055C000E94CF046115710599F020E931E0C901C1
:10056C000197F1F761507109D1F70AC0C701B601C3
:10057C000E94CF0402C061E070E0CB010197F1F75B
:10058C005C98FF91EF91BF91AF919F918F917F916B
:10059C006F915F914F913F912F91FF90EF90DF9072
:1005AC00CF90BF90AF909F908F900F900FBE0F90F9
:0405BC001F901895DF
:1005C000CF92DF92EF92FF920F931F93CF93DF931F
:1005D00000D000D0CDB7DEB769837A838B839C834C
:1005E00089819A81AB81BC81BB238CF489819A81FA
:1005F000AB81BC81B095A095909581959F4FAF4FF1
:10060000BF4F89839A83AB83BC8301E001C000E0C4
:100610000E94210689819A81AB81BC81892B8A2B1A
:100620008B2B29F460E081E00E9416062EC010E0BA
:100630000F2EFAE0CF2ED12CE12CF12CF02D698178
:100640007A818B819C811F5FA70196010E94C90559
:10065000812F0E94160669817A818B819C81A70176
:1006600096010E94C90529833A834B835C83898163
:100670009A81AB81BC81892B8A2B8B2B01F70023BC
:1006800021F06AE0812F0E9416060F900F900F90C4
:100690000F90DF91CF911F910F91FF90EF90DF901E
:0406A000CF9008955A
:1006A40010C00E94590658F00E94520640F029F4E6
:1006B4005F3F29F00C94670651110C9461060C9469
:1006C40084060E94680568F39923B1F3552391F3D6
:1006D400951B550BBB27AA2762177307840738F0AD
:1006E4009F5F5F4F220F331F441FAA1FA9F335D00A
:1006F4000E2E3AF0E0E832D091505040E695001CBE
:10070400CAF72BD0FE2F29D0660F771F881FBB1F77
:10071400261737074807AB07B0E809F0BB0B802D55
:10072400BF01FF2793585F4F3AF09E3F510578F081
:100734000C9467060C9461065F3FE4F3983ED4F38F
:10074400869577956795B795F7959F5FC9F7880F55
:10075400911D9695879597F90895E1E0660F771FA7
:10076400881FBB1F621773078407BA0720F0621B38
:0E077400730B840BBA0BEE1F88F7E095089507
:100782000FC00E94520638F00E94590620F09523AD
:1007920011F00C9467060C94840611240C946106E3
:1007A2000E94680570F3959FC1F3950F50E0551FA5
:1007B200629FF001729FBB27F00DB11D639FAA27B4
:1007C200F00DB11DAA1F649F6627B00DA11D661F03
:1007D200829F2227B00DA11D621F739FB00DA11D24
:1007E200621F839FA00D611D221F749F3327A00DDE
:1007F200611D231F849F600D211D822F762F6A2F7A
:1008020011249F5750409AF0F1F088234AF0EE0FDE
:10081200FF1FBB1F661F771F881F91505040A9F70B
:100822009E3F510580F00C9467060C9461065F3F71
:10083200E4F3983ED4F3869577956795B795F79547
:10084200E7959F5FC1F7FE2B880F911D96958795BF
:0408520097F9089575
:1008560011C00E94520638F00E94590620F039F461
:100866009F3F19F426F40C9484060EF4E095E7FBFA
:100876000C946706E92F0E94680558F3BA176207B9
:1008860073078407950720F079F4A6F50C946006A3
:100896000EF4E0950B2EBA2FA02D0B01B901900195
:1008A6000C01CA01A0011124FF27591B99F0593FD9
:1008B60050F4503E68F11A16F040A22F232F342F21
:1008C6004427585FF3CF469537952795A795F0406F
:1008D6005395C9F77EF41F16BA0B620B730B840B84
:1008E600BAF09150A1F0FF0FBB1F661F771F881F3C
:1008F600C2F70EC0BA0F621F731F841F48F4879594
:1009060077956795B795F7959E3F08F0B0CF939585
:0E091600880F08F09927EE0F979587950895A2
:10092400E89409C097FB3EF4909580957095619585
:100934007F4F8F4F9F4F9923A9F0F92F96E9BB273B
:100944009395F695879577956795B795F111F8CFB7
:10095400FAF4BB0F11F460FF1BC06F5F7F4F8F4F22
:100964009F4F16C0882311F096E911C0772321F018
:100974009EE8872F762F05C0662371F096E8862FB0
:1009840070E060E02AF09A95660F771F881FDAF707
:0A099400880F9695879597F908954E
:10099E000E94700588F09F5798F0B92F9927B7518C
:1009AE00B0F0E1F0660F771F881F991F1AF0BA9505
:1009BE00C9F714C0B13091F00E946006B1E00895FD
:1009CE000C946006672F782F8827B85F39F0B93FEF
:1009DE00CCF3869577956795B395D9F73EF49095B8
:0E09EE008095709561957F4F8F4F9F4F0895B4
:1009FC001F920F920FB60F9211242F933F934F9388
:100A0C005F936F937F938F939F93AF93BF93EF936A
:100A1C00FF930E943406FF91EF91BF91AF919F918C
:100A2C008F917F916F915F914F913F912F910F908B
:080A3C000FBE0F901F901895EA
:100A4400990F0008550FAA0BE0E8FEEF16161706DB
:100A5400E807F907C0F012161306E407F50798F043
:100A6400621B730B840B950B39F40A2661F0232B5C
:100A7400242B252B21F408950A2609F4A140A695D8
:080A84008FEF811D811D089513
:100A8C00ECE7F0E09081907F90839081892B8083BC
:100A9C00EAE7F0E080818068808385E38A95F1F74E
:100AAC000000808180648083808184FFFDCFEAE731
:100ABC00F0E0808180618083108280917800909139
:040ACC007900089510
:100AD00057FD9058440F551F59F05F3F71F04795EF
:100AE000880F97FB991F61F09F3F79F087950895D4
:100AF000121613061406551FF2CF4695F1DF08C0F3
:100B0000161617061806991FF1CF8695710561050F
:040B100008940895A8
:100B1400A1E21A2EAA1BBB1BFD010DC0AA1FBB1FFD
:100B2400EE1FFF1FA217B307E407F50720F0A21B6F
:100B3400B30BE40BF50B661F771F881F991F1A94DC
:100B440069F760957095809590959B01AC01BD0106
:040B5400CF01089530
:100B58001F920F920FB60F9211248F939F9380913B
:100B680086009091870090931F0180931E01109238
:100B78001D0110921C018FEB809381009F918F9132
:0A0B88000F900FBE0F901F901895FC
:100B9200052E97FB1EF400940E943C0657FD07D0D9
:100BA2000E948A0507FC03D04EF40C943C06509533
:0E0BB2004095309521953F4F4F4F5F4F08956E
:100BC000092E0394000C11F4882352F0BB0F40F45B
:100BD000BF2B11F460FF04C06F5F7F4F8F4F9F4F9B
:020BE000089576
:100BE200ECE7F0E080818083808181608083EAE7A6
:0A0BF200F0E08081816080830895A7
:100BFC0052985A9AE9E6F0E080818E7F808380815A
:080C0C0082608083E89A0895DC
:100C14001092C50087E68093C40088E18093C100E8
:080C24008EE08093C2000895E8
:100C2C00CF93C62F2A980E946D068C2F0E946D06BA
:060C3C002A9ACF910895F1
:100C4200CF93C09129016FE08C2F0E941606C150EC
:060C5200D1F7CF910895D7
:100C5800E0ECF0E0908195FFFDCF8093C600089509
:100C6800E0ECF0E080818823ECF78091C6000895DD
:100C780090958095709561957F4F8F4F9F4F089500
:0E0C88005058BB27AA270E942B040C94E005AD
:0E0C96000E94CF046894B1110C946106089579
:0E0CA40000240A94161617061806090608956D
:0E0CB20000240A94121613061406050608956F
:0E0CC000E894BB2766277727CB0197F90895A4
:0C0CCE0097F99F6780E870E060E00895EF
:0A0CDA008EBD0DB407FEFDCF089596
:0A0CE4000E94220508F481E0089543
:0A0CEE000E94220508F48FEF08951C
:080CF8000E9452030C94E00578
:080D00000E94C1030C94E00500
:060D08009FEF80EC08954E
:040D0E000C94000041
:020D12000A00D5
:010D140008D6
:010D150001DC
:010D160003D9
:00000001FF
